{
  "contractName": "UserActions",
  "abi": [
    {
      "anonymous": false,
      "inputs": [
        {
          "indexed": true,
          "internalType": "address",
          "name": "_userAddress",
          "type": "address"
        },
        {
          "indexed": false,
          "internalType": "string",
          "name": "_name",
          "type": "string"
        },
        {
          "indexed": false,
          "internalType": "string",
          "name": "_bio",
          "type": "string"
        },
        {
          "indexed": false,
          "internalType": "uint256",
          "name": "_age",
          "type": "uint256"
        },
        {
          "indexed": false,
          "internalType": "string",
          "name": "_city",
          "type": "string"
        }
      ],
      "name": "UserCreation",
      "type": "event"
    },
    {
      "anonymous": false,
      "inputs": [
        {
          "indexed": true,
          "internalType": "address",
          "name": "_userAddress",
          "type": "address"
        },
        {
          "indexed": false,
          "internalType": "string",
          "name": "_name",
          "type": "string"
        },
        {
          "indexed": false,
          "internalType": "string",
          "name": "_bio",
          "type": "string"
        },
        {
          "indexed": false,
          "internalType": "uint256",
          "name": "_age",
          "type": "uint256"
        },
        {
          "indexed": false,
          "internalType": "string",
          "name": "_city",
          "type": "string"
        }
      ],
      "name": "UserUpdation",
      "type": "event"
    },
    {
      "anonymous": false,
      "inputs": [
        {
          "indexed": false,
          "internalType": "string",
          "name": "_name",
          "type": "string"
        },
        {
          "indexed": false,
          "internalType": "string",
          "name": "_description",
          "type": "string"
        },
        {
          "indexed": false,
          "internalType": "uint256",
          "name": "_publishedOn",
          "type": "uint256"
        },
        {
          "indexed": false,
          "internalType": "string",
          "name": "_IPFSHash",
          "type": "string"
        },
        {
          "indexed": false,
          "internalType": "string",
          "name": "uniqueId",
          "type": "string"
        }
      ],
      "name": "addVideoEvent",
      "type": "event"
    },
    {
      "inputs": [
        {
          "internalType": "address",
          "name": "",
          "type": "address"
        },
        {
          "internalType": "uint256",
          "name": "",
          "type": "uint256"
        }
      ],
      "name": "userToVideo",
      "outputs": [
        {
          "internalType": "string",
          "name": "name",
          "type": "string"
        },
        {
          "internalType": "string",
          "name": "description",
          "type": "string"
        },
        {
          "internalType": "uint256",
          "name": "publishedOn",
          "type": "uint256"
        },
        {
          "internalType": "string",
          "name": "IPFSHash",
          "type": "string"
        },
        {
          "internalType": "string",
          "name": "uniqueId",
          "type": "string"
        }
      ],
      "stateMutability": "view",
      "type": "function",
      "constant": true
    },
    {
      "inputs": [
        {
          "internalType": "address",
          "name": "",
          "type": "address"
        }
      ],
      "name": "users",
      "outputs": [
        {
          "internalType": "string",
          "name": "name",
          "type": "string"
        },
        {
          "internalType": "string",
          "name": "bio",
          "type": "string"
        },
        {
          "internalType": "uint256",
          "name": "age",
          "type": "uint256"
        },
        {
          "internalType": "string",
          "name": "city",
          "type": "string"
        },
        {
          "internalType": "uint256",
          "name": "memberSince",
          "type": "uint256"
        }
      ],
      "stateMutability": "view",
      "type": "function",
      "constant": true
    },
    {
      "inputs": [
        {
          "internalType": "string",
          "name": "_name",
          "type": "string"
        },
        {
          "internalType": "string",
          "name": "_bio",
          "type": "string"
        },
        {
          "internalType": "uint256",
          "name": "_age",
          "type": "uint256"
        },
        {
          "internalType": "string",
          "name": "_city",
          "type": "string"
        }
      ],
      "name": "addUser",
      "outputs": [],
      "stateMutability": "nonpayable",
      "type": "function"
    },
    {
      "inputs": [
        {
          "internalType": "string",
          "name": "_name",
          "type": "string"
        },
        {
          "internalType": "string",
          "name": "_bio",
          "type": "string"
        },
        {
          "internalType": "uint256",
          "name": "_age",
          "type": "uint256"
        },
        {
          "internalType": "string",
          "name": "_city",
          "type": "string"
        }
      ],
      "name": "updateUser",
      "outputs": [],
      "stateMutability": "nonpayable",
      "type": "function"
    },
    {
      "inputs": [
        {
          "internalType": "address",
          "name": "_userAddress",
          "type": "address"
        }
      ],
      "name": "getUserDetails",
      "outputs": [
        {
          "internalType": "string",
          "name": "",
          "type": "string"
        },
        {
          "internalType": "string",
          "name": "",
          "type": "string"
        },
        {
          "internalType": "uint256",
          "name": "",
          "type": "uint256"
        },
        {
          "internalType": "string",
          "name": "",
          "type": "string"
        }
      ],
      "stateMutability": "view",
      "type": "function",
      "constant": true
    },
    {
      "inputs": [
        {
          "internalType": "string",
          "name": "_name",
          "type": "string"
        },
        {
          "internalType": "string",
          "name": "_description",
          "type": "string"
        },
        {
          "internalType": "string",
          "name": "_IPFSHash",
          "type": "string"
        }
      ],
      "name": "addVideo",
      "outputs": [],
      "stateMutability": "nonpayable",
      "type": "function"
    }
  ],
  "bytecode": "0x608060405234801561001057600080fd5b50611b54806100206000396000f3fe608060405234801561001057600080fd5b50600436106100625760003560e01c80632a835567146100675780633edda03114610083578063797d61f11461009f5780637d876058146100d3578063a87430ba146100ef578063cc3d967b14610123575b600080fd5b610081600480360381019061007c9190611170565b610156565b005b61009d6004803603810190610098919061124d565b6101f9565b005b6100b960048036038101906100b49190611366565b61025f565b6040516100ca959493929190611434565b60405180910390f35b6100ed60048036038101906100e8919061124d565b6104d2565b005b610109600480360381019061010491906114a3565b610538565b60405161011a9594939291906114d0565b60405180910390f35b61013d600480360381019061013891906114a3565b610706565b60405161014d9493929190611538565b60405180910390f35b6001151561016333610725565b1515146101a5576040517f08c379a000000000000000000000000000000000000000000000000000000000815260040161019c906115de565b60405180910390fd5b60006101b2848484610782565b90507f16e5cbaec8fe5db38d35c21aa6575ce89c3c58ccba24e820b6d3cadf27e050d084844285856040516101eb959493929190611434565b60405180910390a150505050565b610205848484846108d2565b3373ffffffffffffffffffffffffffffffffffffffff167fd73322368d3b4fe856a7af5cec8965cd9bc60a4f8015658a881398ecfa383d9b858585856040516102519493929190611538565b60405180910390a250505050565b6001602052816000526040600020818154811061027b57600080fd5b90600052602060002090600502016000915091505080600001805461029f9061162d565b80601f01602080910402602001604051908101604052809291908181526020018280546102cb9061162d565b80156103185780601f106102ed57610100808354040283529160200191610318565b820191906000526020600020905b8154815290600101906020018083116102fb57829003601f168201915b50505050509080600101805461032d9061162d565b80601f01602080910402602001604051908101604052809291908181526020018280546103599061162d565b80156103a65780601f1061037b576101008083540402835291602001916103a6565b820191906000526020600020905b81548152906001019060200180831161038957829003601f168201915b5050505050908060020154908060030180546103c19061162d565b80601f01602080910402602001604051908101604052809291908181526020018280546103ed9061162d565b801561043a5780601f1061040f5761010080835404028352916020019161043a565b820191906000526020600020905b81548152906001019060200180831161041d57829003601f168201915b50505050509080600401805461044f9061162d565b80601f016020809104026020016040519081016040528092919081815260200182805461047b9061162d565b80156104c85780601f1061049d576101008083540402835291602001916104c8565b820191906000526020600020905b8154815290600101906020018083116104ab57829003601f168201915b5050505050905085565b6104de848484846109e5565b3373ffffffffffffffffffffffffffffffffffffffff167f2af475bb1d581c1c4f16e9551e3d3a134053eaf6713593936500ee87bf79b91d8585858560405161052a9493929190611538565b60405180910390a250505050565b600060205280600052604060002060009150905080600001805461055b9061162d565b80601f01602080910402602001604051908101604052809291908181526020018280546105879061162d565b80156105d45780601f106105a9576101008083540402835291602001916105d4565b820191906000526020600020905b8154815290600101906020018083116105b757829003601f168201915b5050505050908060010180546105e99061162d565b80601f01602080910402602001604051908101604052809291908181526020018280546106159061162d565b80156106625780601f1061063757610100808354040283529160200191610662565b820191906000526020600020905b81548152906001019060200180831161064557829003601f168201915b50505050509080600201549080600301805461067d9061162d565b80601f01602080910402602001604051908101604052809291908181526020018280546106a99061162d565b80156106f65780601f106106cb576101008083540402835291602001916106f6565b820191906000526020600020905b8154815290600101906020018083116106d957829003601f168201915b5050505050908060040154905085565b6060806000606061071685610aea565b93509350935093509193509193565b6000806000808473ffffffffffffffffffffffffffffffffffffffff1673ffffffffffffffffffffffffffffffffffffffff1681526020019081526020016000206004015403610778576000905061077d565b600190505b919050565b606060006107a73373ffffffffffffffffffffffffffffffffffffffff166014610d2c565b836107b142610f68565b6040516020016107c39392919061169a565b6040516020818303038152906040529050600160003373ffffffffffffffffffffffffffffffffffffffff1673ffffffffffffffffffffffffffffffffffffffff1681526020019081526020016000206040518060a0016040528087815260200186815260200142815260200185815260200183815250908060018154018082558091505060019003906000526020600020906005020160009091909190915060008201518160000190816108789190611877565b50602082015181600101908161088e9190611877565b506040820151816002015560608201518160030190816108ae9190611877565b5060808201518160040190816108c49190611877565b505050809150509392505050565b600015156108df33610725565b151514610921576040517f08c379a000000000000000000000000000000000000000000000000000000000815260040161091890611995565b60405180910390fd5b6040518060a00160405280858152602001848152602001838152602001828152602001428152506000803373ffffffffffffffffffffffffffffffffffffffff1673ffffffffffffffffffffffffffffffffffffffff168152602001908152602001600020600082015181600001908161099b9190611877565b5060208201518160010190816109b19190611877565b506040820151816002015560608201518160030190816109d19190611877565b506080820151816004015590505050505050565b6040518060a001604052808581526020018481526020018381526020018281526020016000803373ffffffffffffffffffffffffffffffffffffffff1673ffffffffffffffffffffffffffffffffffffffff168152602001908152602001600020600401548152506000803373ffffffffffffffffffffffffffffffffffffffff1673ffffffffffffffffffffffffffffffffffffffff1681526020019081526020016000206000820151816000019081610aa09190611877565b506020820151816001019081610ab69190611877565b50604082015181600201556060820151816003019081610ad69190611877565b506080820151816004015590505050505050565b6060806000606060008060008773ffffffffffffffffffffffffffffffffffffffff1673ffffffffffffffffffffffffffffffffffffffff1681526020019081526020016000206040518060a0016040529081600082018054610b4c9061162d565b80601f0160208091040260200160405190810160405280929190818152602001828054610b789061162d565b8015610bc55780601f10610b9a57610100808354040283529160200191610bc5565b820191906000526020600020905b815481529060010190602001808311610ba857829003601f168201915b50505050508152602001600182018054610bde9061162d565b80601f0160208091040260200160405190810160405280929190818152602001828054610c0a9061162d565b8015610c575780601f10610c2c57610100808354040283529160200191610c57565b820191906000526020600020905b815481529060010190602001808311610c3a57829003601f168201915b5050505050815260200160028201548152602001600382018054610c7a9061162d565b80601f0160208091040260200160405190810160405280929190818152602001828054610ca69061162d565b8015610cf35780601f10610cc857610100808354040283529160200191610cf3565b820191906000526020600020905b815481529060010190602001808311610cd657829003601f168201915b50505050508152602001600482015481525050905080600001518160200151826040015183606001519450945094509450509193509193565b606060006002836002610d3f91906119e4565b610d499190611a26565b67ffffffffffffffff811115610d6257610d61611045565b5b6040519080825280601f01601f191660200182016040528015610d945781602001600182028036833780820191505090505b5090507f300000000000000000000000000000000000000000000000000000000000000081600081518110610dcc57610dcb611a5a565b5b60200101907effffffffffffffffffffffffffffffffffffffffffffffffffffffffffffff1916908160001a9053507f780000000000000000000000000000000000000000000000000000000000000081600181518110610e3057610e2f611a5a565b5b60200101907effffffffffffffffffffffffffffffffffffffffffffffffffffffffffffff1916908160001a90535060006001846002610e7091906119e4565b610e7a9190611a26565b90505b6001811115610f1a577f3031323334353637383961626364656600000000000000000000000000000000600f861660108110610ebc57610ebb611a5a565b5b1a60f81b828281518110610ed357610ed2611a5a565b5b60200101907effffffffffffffffffffffffffffffffffffffffffffffffffffffffffffff1916908160001a905350600485901c945080610f1390611a89565b9050610e7d565b5060008414610f5e576040517f08c379a0000000000000000000000000000000000000000000000000000000008152600401610f5590611afe565b60405180910390fd5b8091505092915050565b6060610f7f826001610f7985610f86565b01610d2c565b9050919050565b600080600090506000608084901c1115610fa857608083901c92506010810190505b6000604084901c1115610fc357604083901c92506008810190505b6000602084901c1115610fde57602083901c92506004810190505b6000601084901c1115610ff957601083901c92506002810190505b6000600884901c111561100d576001810190505b80915050919050565b6000604051905090565b600080fd5b600080fd5b600080fd5b600080fd5b6000601f19601f8301169050919050565b7f4e487b7100000000000000000000000000000000000000000000000000000000600052604160045260246000fd5b61107d82611034565b810181811067ffffffffffffffff8211171561109c5761109b611045565b5b80604052505050565b60006110af611016565b90506110bb8282611074565b919050565b600067ffffffffffffffff8211156110db576110da611045565b5b6110e482611034565b9050602081019050919050565b82818337600083830152505050565b600061111361110e846110c0565b6110a5565b90508281526020810184848401111561112f5761112e61102f565b5b61113a8482856110f1565b509392505050565b600082601f8301126111575761115661102a565b5b8135611167848260208601611100565b91505092915050565b60008060006060848603121561118957611188611020565b5b600084013567ffffffffffffffff8111156111a7576111a6611025565b5b6111b386828701611142565b935050602084013567ffffffffffffffff8111156111d4576111d3611025565b5b6111e086828701611142565b925050604084013567ffffffffffffffff81111561120157611200611025565b5b61120d86828701611142565b9150509250925092565b6000819050919050565b61122a81611217565b811461123557600080fd5b50565b60008135905061124781611221565b92915050565b6000806000806080858703121561126757611266611020565b5b600085013567ffffffffffffffff81111561128557611284611025565b5b61129187828801611142565b945050602085013567ffffffffffffffff8111156112b2576112b1611025565b5b6112be87828801611142565b93505060406112cf87828801611238565b925050606085013567ffffffffffffffff8111156112f0576112ef611025565b5b6112fc87828801611142565b91505092959194509250565b600073ffffffffffffffffffffffffffffffffffffffff82169050919050565b600061133382611308565b9050919050565b61134381611328565b811461134e57600080fd5b50565b6000813590506113608161133a565b92915050565b6000806040838503121561137d5761137c611020565b5b600061138b85828601611351565b925050602061139c85828601611238565b9150509250929050565b600081519050919050565b600082825260208201905092915050565b60005b838110156113e05780820151818401526020810190506113c5565b60008484015250505050565b60006113f7826113a6565b61140181856113b1565b93506114118185602086016113c2565b61141a81611034565b840191505092915050565b61142e81611217565b82525050565b600060a082019050818103600083015261144e81886113ec565b9050818103602083015261146281876113ec565b90506114716040830186611425565b818103606083015261148381856113ec565b9050818103608083015261149781846113ec565b90509695505050505050565b6000602082840312156114b9576114b8611020565b5b60006114c784828501611351565b91505092915050565b600060a08201905081810360008301526114ea81886113ec565b905081810360208301526114fe81876113ec565b905061150d6040830186611425565b818103606083015261151f81856113ec565b905061152e6080830184611425565b9695505050505050565b6000608082019050818103600083015261155281876113ec565b9050818103602083015261156681866113ec565b90506115756040830185611425565b818103606083015261158781846113ec565b905095945050505050565b7f506c65617365207369676e757020666972737400000000000000000000000000600082015250565b60006115c86013836113b1565b91506115d382611592565b602082019050919050565b600060208201905081810360008301526115f7816115bb565b9050919050565b7f4e487b7100000000000000000000000000000000000000000000000000000000600052602260045260246000fd5b6000600282049050600182168061164557607f821691505b602082108103611658576116576115fe565b5b50919050565b600081905092915050565b6000611674826113a6565b61167e818561165e565b935061168e8185602086016113c2565b80840191505092915050565b60006116a68286611669565b91506116b28285611669565b91506116be8284611669565b9150819050949350505050565b60008190508160005260206000209050919050565b60006020601f8301049050919050565b600082821b905092915050565b60006008830261172d7fffffffffffffffffffffffffffffffffffffffffffffffffffffffffffffffff826116f0565b61173786836116f0565b95508019841693508086168417925050509392505050565b6000819050919050565b600061177461176f61176a84611217565b61174f565b611217565b9050919050565b6000819050919050565b61178e83611759565b6117a261179a8261177b565b8484546116fd565b825550505050565b600090565b6117b76117aa565b6117c2818484611785565b505050565b5b818110156117e6576117db6000826117af565b6001810190506117c8565b5050565b601f82111561182b576117fc816116cb565b611805846116e0565b81016020851015611814578190505b611828611820856116e0565b8301826117c7565b50505b505050565b600082821c905092915050565b600061184e60001984600802611830565b1980831691505092915050565b6000611867838361183d565b9150826002028217905092915050565b611880826113a6565b67ffffffffffffffff81111561189957611898611045565b5b6118a3825461162d565b6118ae8282856117ea565b600060209050601f8311600181146118e157600084156118cf578287015190505b6118d9858261185b565b865550611941565b601f1984166118ef866116cb565b60005b82811015611917578489015182556001820191506020850194506020810190506118f2565b868310156119345784890151611930601f89168261183d565b8355505b6001600288020188555050505b505050505050565b7f596f752061726520616c7265616479207369676e656455700000000000000000600082015250565b600061197f6018836113b1565b915061198a82611949565b602082019050919050565b600060208201905081810360008301526119ae81611972565b9050919050565b7f4e487b7100000000000000000000000000000000000000000000000000000000600052601160045260246000fd5b60006119ef82611217565b91506119fa83611217565b9250828202611a0881611217565b91508282048414831517611a1f57611a1e6119b5565b5b5092915050565b6000611a3182611217565b9150611a3c83611217565b9250828201905080821115611a5457611a536119b5565b5b92915050565b7f4e487b7100000000000000000000000000000000000000000000000000000000600052603260045260246000fd5b6000611a9482611217565b915060008203611aa757611aa66119b5565b5b600182039050919050565b7f537472696e67733a20686578206c656e67746820696e73756666696369656e74600082015250565b6000611ae86020836113b1565b9150611af382611ab2565b602082019050919050565b60006020820190508181036000830152611b1781611adb565b905091905056fea2646970667358221220b560487882845d79e8c1977b35c2ef3da353ca23b2578c0f90ba3ba09a0823eb64736f6c63430008120033",
  "immutableReferences": {},
  "source": "pragma solidity ^0.8.18;\nimport \"./UserStore.sol\";\nimport \"./VideoStore.sol\";\ncontract UserActions is UserStore, VideoStore {\n\n    event UserCreation(address indexed _userAddress, string _name, string _bio, uint _age, string _city );\n\n    event UserUpdation(address indexed _userAddress, string _name, string _bio, uint _age, string _city );\n\n    event addVideoEvent(string _name, string _description, uint _publishedOn, string _IPFSHash,string uniqueId);\n\n    function addUser(string memory _name, string memory _bio, uint _age, string memory _city) public {\n        _addUser(_name,_bio,_age,_city);\n        emit UserCreation(msg.sender, _name, _bio, _age, _city);\n    }\n\n    function updateUser(string memory _name, string memory _bio, uint _age, string memory _city) public {\n        _updateUser(_name, _bio, _age, _city);\n        emit UserUpdation(msg.sender, _name, _bio, _age, _city);\n    }\n\n    function getUserDetails(address _userAddress) public view returns (string memory, string memory, uint, string memory)  {\n        return _getUserDetails(_userAddress);\n    }\n\n    function addVideo(string memory _name, string memory _description, string memory _IPFSHash) public {\n        require(checkUserExists(msg.sender) == true,\"Please signup first\");\n        string memory uniqueId = _addVideo( _name, _description, _IPFSHash);\n        emit addVideoEvent(_name, _description, block.timestamp, _IPFSHash, uniqueId);\n    }\n\n}",
  "sourcePath": "/Users/shivansh/CPSC-559/CPSC-559-Decentralized_YT/contracts/UserActions.sol",
  "compiler": {
    "name": "solc",
    "version": "0.8.18+commit.87f61d96.Emscripten.clang"
  },
  "schemaVersion": "3.4.12",
  "updatedAt": "2023-05-06T04:04:31.486Z",
  "networkType": "ethereum",
  "devdoc": {
    "kind": "dev",
    "methods": {},
    "version": 1
  },
  "userdoc": {
    "kind": "user",
    "methods": {},
    "version": 1
  }
}