{
  "contractName": "UserStore",
  "abi": [
    {
      "anonymous": false,
      "inputs": [
        {
          "indexed": true,
          "internalType": "address",
          "name": "_userAddress",
          "type": "address"
        },
        {
          "indexed": false,
          "internalType": "string",
          "name": "_name",
          "type": "string"
        },
        {
          "indexed": false,
          "internalType": "string",
          "name": "_bio",
          "type": "string"
        },
        {
          "indexed": false,
          "internalType": "uint256",
          "name": "_age",
          "type": "uint256"
        },
        {
          "indexed": false,
          "internalType": "string",
          "name": "_city",
          "type": "string"
        }
      ],
      "name": "UserCreation",
      "type": "event"
    },
    {
      "anonymous": false,
      "inputs": [
        {
          "indexed": true,
          "internalType": "address",
          "name": "_userAddress",
          "type": "address"
        },
        {
          "indexed": false,
          "internalType": "string",
          "name": "_name",
          "type": "string"
        },
        {
          "indexed": false,
          "internalType": "string",
          "name": "_bio",
          "type": "string"
        },
        {
          "indexed": false,
          "internalType": "uint256",
          "name": "_age",
          "type": "uint256"
        },
        {
          "indexed": false,
          "internalType": "string",
          "name": "_city",
          "type": "string"
        }
      ],
      "name": "UserUpdation",
      "type": "event"
    },
    {
      "inputs": [
        {
          "internalType": "address",
          "name": "",
          "type": "address"
        }
      ],
      "name": "users",
      "outputs": [
        {
          "internalType": "string",
          "name": "name",
          "type": "string"
        },
        {
          "internalType": "string",
          "name": "bio",
          "type": "string"
        },
        {
          "internalType": "uint256",
          "name": "age",
          "type": "uint256"
        },
        {
          "internalType": "string",
          "name": "city",
          "type": "string"
        },
        {
          "internalType": "uint256",
          "name": "memberSince",
          "type": "uint256"
        }
      ],
      "stateMutability": "view",
      "type": "function",
      "constant": true
    },
    {
      "inputs": [
        {
          "internalType": "string",
          "name": "_name",
          "type": "string"
        },
        {
          "internalType": "string",
          "name": "_bio",
          "type": "string"
        },
        {
          "internalType": "uint256",
          "name": "_age",
          "type": "uint256"
        },
        {
          "internalType": "string",
          "name": "_city",
          "type": "string"
        }
      ],
      "name": "addUser",
      "outputs": [],
      "stateMutability": "nonpayable",
      "type": "function"
    },
    {
      "inputs": [
        {
          "internalType": "string",
          "name": "_name",
          "type": "string"
        },
        {
          "internalType": "string",
          "name": "_bio",
          "type": "string"
        },
        {
          "internalType": "uint256",
          "name": "_age",
          "type": "uint256"
        },
        {
          "internalType": "string",
          "name": "_city",
          "type": "string"
        }
      ],
      "name": "updateUser",
      "outputs": [],
      "stateMutability": "nonpayable",
      "type": "function"
    },
    {
      "inputs": [
        {
          "internalType": "address",
          "name": "_userAddress",
          "type": "address"
        }
      ],
      "name": "getUserDetails",
      "outputs": [
        {
          "internalType": "string",
          "name": "",
          "type": "string"
        },
        {
          "internalType": "string",
          "name": "",
          "type": "string"
        },
        {
          "internalType": "uint256",
          "name": "",
          "type": "uint256"
        },
        {
          "internalType": "string",
          "name": "",
          "type": "string"
        }
      ],
      "stateMutability": "view",
      "type": "function",
      "constant": true
    },
    {
      "inputs": [
        {
          "internalType": "address",
          "name": "a",
          "type": "address"
        }
      ],
      "name": "checkUserExists",
      "outputs": [
        {
          "internalType": "bool",
          "name": "",
          "type": "bool"
        }
      ],
      "stateMutability": "view",
      "type": "function",
      "constant": true
    }
  ],
  "bytecode": "0x608060405234801561001057600080fd5b50611034806100206000396000f3fe608060405234801561001057600080fd5b50600436106100575760003560e01c8063133f50f51461005c5780633edda0311461008c5780637d876058146100a8578063a87430ba146100c4578063cc3d967b146100f8575b600080fd5b610076600480360381019061007191906108ca565b61012b565b6040516100839190610912565b60405180910390f35b6100a660048036038101906100a19190610aa9565b610188565b005b6100c260048036038101906100bd9190610aa9565b6102ef565b005b6100de60048036038101906100d991906108ca565b610448565b6040516100ef959493929190610bf2565b60405180910390f35b610112600480360381019061010d91906108ca565b610616565b6040516101229493929190610c5a565b60405180910390f35b6000806000808473ffffffffffffffffffffffffffffffffffffffff1673ffffffffffffffffffffffffffffffffffffffff168152602001908152602001600020600401540361017e5760009050610183565b600190505b919050565b600015156101953361012b565b1515146101d7576040517f08c379a00000000000000000000000000000000000000000000000000000000081526004016101ce90610d00565b60405180910390fd5b6040518060a00160405280858152602001848152602001838152602001828152602001428152506000803373ffffffffffffffffffffffffffffffffffffffff1673ffffffffffffffffffffffffffffffffffffffff16815260200190815260200160002060008201518160000190816102519190610f2c565b5060208201518160010190816102679190610f2c565b506040820151816002015560608201518160030190816102879190610f2c565b50608082015181600401559050503373ffffffffffffffffffffffffffffffffffffffff167fd73322368d3b4fe856a7af5cec8965cd9bc60a4f8015658a881398ecfa383d9b858585856040516102e19493929190610c5a565b60405180910390a250505050565b6040518060a001604052808581526020018481526020018381526020018281526020016000803373ffffffffffffffffffffffffffffffffffffffff1673ffffffffffffffffffffffffffffffffffffffff168152602001908152602001600020600401548152506000803373ffffffffffffffffffffffffffffffffffffffff1673ffffffffffffffffffffffffffffffffffffffff16815260200190815260200160002060008201518160000190816103aa9190610f2c565b5060208201518160010190816103c09190610f2c565b506040820151816002015560608201518160030190816103e09190610f2c565b50608082015181600401559050503373ffffffffffffffffffffffffffffffffffffffff167fd73322368d3b4fe856a7af5cec8965cd9bc60a4f8015658a881398ecfa383d9b8585858560405161043a9493929190610c5a565b60405180910390a250505050565b600060205280600052604060002060009150905080600001805461046b90610d4f565b80601f016020809104026020016040519081016040528092919081815260200182805461049790610d4f565b80156104e45780601f106104b9576101008083540402835291602001916104e4565b820191906000526020600020905b8154815290600101906020018083116104c757829003601f168201915b5050505050908060010180546104f990610d4f565b80601f016020809104026020016040519081016040528092919081815260200182805461052590610d4f565b80156105725780601f1061054757610100808354040283529160200191610572565b820191906000526020600020905b81548152906001019060200180831161055557829003601f168201915b50505050509080600201549080600301805461058d90610d4f565b80601f01602080910402602001604051908101604052809291908181526020018280546105b990610d4f565b80156106065780601f106105db57610100808354040283529160200191610606565b820191906000526020600020905b8154815290600101906020018083116105e957829003601f168201915b5050505050908060040154905085565b6060806000606060008060008773ffffffffffffffffffffffffffffffffffffffff1673ffffffffffffffffffffffffffffffffffffffff1681526020019081526020016000206040518060a001604052908160008201805461067890610d4f565b80601f01602080910402602001604051908101604052809291908181526020018280546106a490610d4f565b80156106f15780601f106106c6576101008083540402835291602001916106f1565b820191906000526020600020905b8154815290600101906020018083116106d457829003601f168201915b5050505050815260200160018201805461070a90610d4f565b80601f016020809104026020016040519081016040528092919081815260200182805461073690610d4f565b80156107835780601f1061075857610100808354040283529160200191610783565b820191906000526020600020905b81548152906001019060200180831161076657829003601f168201915b50505050508152602001600282015481526020016003820180546107a690610d4f565b80601f01602080910402602001604051908101604052809291908181526020018280546107d290610d4f565b801561081f5780601f106107f45761010080835404028352916020019161081f565b820191906000526020600020905b81548152906001019060200180831161080257829003601f168201915b50505050508152602001600482015481525050905080600001518160200151826040015183606001519450945094509450509193509193565b6000604051905090565b600080fd5b600080fd5b600073ffffffffffffffffffffffffffffffffffffffff82169050919050565b60006108978261086c565b9050919050565b6108a78161088c565b81146108b257600080fd5b50565b6000813590506108c48161089e565b92915050565b6000602082840312156108e0576108df610862565b5b60006108ee848285016108b5565b91505092915050565b60008115159050919050565b61090c816108f7565b82525050565b60006020820190506109276000830184610903565b92915050565b600080fd5b600080fd5b6000601f19601f8301169050919050565b7f4e487b7100000000000000000000000000000000000000000000000000000000600052604160045260246000fd5b61098082610937565b810181811067ffffffffffffffff8211171561099f5761099e610948565b5b80604052505050565b60006109b2610858565b90506109be8282610977565b919050565b600067ffffffffffffffff8211156109de576109dd610948565b5b6109e782610937565b9050602081019050919050565b82818337600083830152505050565b6000610a16610a11846109c3565b6109a8565b905082815260208101848484011115610a3257610a31610932565b5b610a3d8482856109f4565b509392505050565b600082601f830112610a5a57610a5961092d565b5b8135610a6a848260208601610a03565b91505092915050565b6000819050919050565b610a8681610a73565b8114610a9157600080fd5b50565b600081359050610aa381610a7d565b92915050565b60008060008060808587031215610ac357610ac2610862565b5b600085013567ffffffffffffffff811115610ae157610ae0610867565b5b610aed87828801610a45565b945050602085013567ffffffffffffffff811115610b0e57610b0d610867565b5b610b1a87828801610a45565b9350506040610b2b87828801610a94565b925050606085013567ffffffffffffffff811115610b4c57610b4b610867565b5b610b5887828801610a45565b91505092959194509250565b600081519050919050565b600082825260208201905092915050565b60005b83811015610b9e578082015181840152602081019050610b83565b60008484015250505050565b6000610bb582610b64565b610bbf8185610b6f565b9350610bcf818560208601610b80565b610bd881610937565b840191505092915050565b610bec81610a73565b82525050565b600060a0820190508181036000830152610c0c8188610baa565b90508181036020830152610c208187610baa565b9050610c2f6040830186610be3565b8181036060830152610c418185610baa565b9050610c506080830184610be3565b9695505050505050565b60006080820190508181036000830152610c748187610baa565b90508181036020830152610c888186610baa565b9050610c976040830185610be3565b8181036060830152610ca98184610baa565b905095945050505050565b7f596f752061726520616c7265616479207369676e656455700000000000000000600082015250565b6000610cea601883610b6f565b9150610cf582610cb4565b602082019050919050565b60006020820190508181036000830152610d1981610cdd565b9050919050565b7f4e487b7100000000000000000000000000000000000000000000000000000000600052602260045260246000fd5b60006002820490506001821680610d6757607f821691505b602082108103610d7a57610d79610d20565b5b50919050565b60008190508160005260206000209050919050565b60006020601f8301049050919050565b600082821b905092915050565b600060088302610de27fffffffffffffffffffffffffffffffffffffffffffffffffffffffffffffffff82610da5565b610dec8683610da5565b95508019841693508086168417925050509392505050565b6000819050919050565b6000610e29610e24610e1f84610a73565b610e04565b610a73565b9050919050565b6000819050919050565b610e4383610e0e565b610e57610e4f82610e30565b848454610db2565b825550505050565b600090565b610e6c610e5f565b610e77818484610e3a565b505050565b5b81811015610e9b57610e90600082610e64565b600181019050610e7d565b5050565b601f821115610ee057610eb181610d80565b610eba84610d95565b81016020851015610ec9578190505b610edd610ed585610d95565b830182610e7c565b50505b505050565b600082821c905092915050565b6000610f0360001984600802610ee5565b1980831691505092915050565b6000610f1c8383610ef2565b9150826002028217905092915050565b610f3582610b64565b67ffffffffffffffff811115610f4e57610f4d610948565b5b610f588254610d4f565b610f63828285610e9f565b600060209050601f831160018114610f965760008415610f84578287015190505b610f8e8582610f10565b865550610ff6565b601f198416610fa486610d80565b60005b82811015610fcc57848901518255600182019150602085019450602081019050610fa7565b86831015610fe95784890151610fe5601f891682610ef2565b8355505b6001600288020188555050505b50505050505056fea2646970667358221220db6afb8a251be0eb50f71ab6784202d5427b80623cbce2d18af68b9b9b39e40b64736f6c63430008120033",
  "immutableReferences": {},
  "source": "pragma solidity ^0.8.18;\ncontract UserStore {\n    struct User {\n        string name;\n        string bio;\n        uint age;\n        string city;\n        uint memberSince;\n    }\n\n    mapping(address => User) public users;\n    \n    event UserCreation(address indexed _userAddress, string _name, string _bio, uint _age, string _city );\n\n    event UserUpdation(address indexed _userAddress, string _name, string _bio, uint _age, string _city );\n\n\n    function addUser(string memory _name, string memory _bio, uint _age, string memory _city) public {\n        require(checkUserExists(msg.sender) == false, \"You are already signedUp\");\n        users[msg.sender] = User(_name,_bio,_age,_city,block.timestamp);\n        emit UserCreation(msg.sender, _name, _bio, _age, _city);\n    }\n\n    function updateUser(string memory _name, string memory _bio, uint _age, string memory _city) public {\n        users[msg.sender] = User({name:_name, bio:_bio, age: _age, city: _city, memberSince:users[msg.sender].memberSince});\n        emit UserCreation(msg.sender, _name, _bio, _age, _city);\n    }\n\n    function getUserDetails(address _userAddress) public view returns (string memory, string memory, uint, string memory) {\n        User memory user = users[_userAddress];\n        return (user.name, user.bio, user.age, user.city);\n    }\n\n    function checkUserExists(address a) public view returns (bool) {\n        if(users[a].memberSince == 0)\n        {\n            return false;\n        }\n        else\n        {\n            return true;\n        }\n  }\n}\n",
  "sourcePath": "/Users/shivansh/CPSC-559/CPSC-559-Decentralized_YT/contracts/UserStore.sol",
  "compiler": {
    "name": "solc",
    "version": "0.8.18+commit.87f61d96.Emscripten.clang"
  },
  "schemaVersion": "3.4.12",
  "updatedAt": "2023-05-05T05:48:55.208Z",
  "networkType": "ethereum",
  "devdoc": {
    "kind": "dev",
    "methods": {},
    "version": 1
  },
  "userdoc": {
    "kind": "user",
    "methods": {},
    "version": 1
  }
}