{
  "contractName": "UserStore",
  "abi": [
    {
      "inputs": [
        {
          "internalType": "address",
          "name": "",
          "type": "address"
        }
      ],
      "name": "users",
      "outputs": [
        {
          "internalType": "string",
          "name": "name",
          "type": "string"
        },
        {
          "internalType": "string",
          "name": "bio",
          "type": "string"
        },
        {
          "internalType": "uint256",
          "name": "age",
          "type": "uint256"
        },
        {
          "internalType": "string",
          "name": "city",
          "type": "string"
        },
        {
          "internalType": "uint256",
          "name": "memberSince",
          "type": "uint256"
        }
      ],
      "stateMutability": "view",
      "type": "function",
      "constant": true
    }
  ],
  "bytecode": "0x608060405234801561001057600080fd5b50610469806100206000396000f3fe608060405234801561001057600080fd5b506004361061002b5760003560e01c8063a87430ba14610030575b600080fd5b61004a60048036038101906100459190610295565b610064565b60405161005b95949392919061036b565b60405180910390f35b600060205280600052604060002060009150905080600001805461008790610402565b80601f01602080910402602001604051908101604052809291908181526020018280546100b390610402565b80156101005780601f106100d557610100808354040283529160200191610100565b820191906000526020600020905b8154815290600101906020018083116100e357829003601f168201915b50505050509080600101805461011590610402565b80601f016020809104026020016040519081016040528092919081815260200182805461014190610402565b801561018e5780601f106101635761010080835404028352916020019161018e565b820191906000526020600020905b81548152906001019060200180831161017157829003601f168201915b5050505050908060020154908060030180546101a990610402565b80601f01602080910402602001604051908101604052809291908181526020018280546101d590610402565b80156102225780601f106101f757610100808354040283529160200191610222565b820191906000526020600020905b81548152906001019060200180831161020557829003601f168201915b5050505050908060040154905085565b600080fd5b600073ffffffffffffffffffffffffffffffffffffffff82169050919050565b600061026282610237565b9050919050565b61027281610257565b811461027d57600080fd5b50565b60008135905061028f81610269565b92915050565b6000602082840312156102ab576102aa610232565b5b60006102b984828501610280565b91505092915050565b600081519050919050565b600082825260208201905092915050565b60005b838110156102fc5780820151818401526020810190506102e1565b60008484015250505050565b6000601f19601f8301169050919050565b6000610324826102c2565b61032e81856102cd565b935061033e8185602086016102de565b61034781610308565b840191505092915050565b6000819050919050565b61036581610352565b82525050565b600060a08201905081810360008301526103858188610319565b905081810360208301526103998187610319565b90506103a8604083018661035c565b81810360608301526103ba8185610319565b90506103c9608083018461035c565b9695505050505050565b7f4e487b7100000000000000000000000000000000000000000000000000000000600052602260045260246000fd5b6000600282049050600182168061041a57607f821691505b60208210810361042d5761042c6103d3565b5b5091905056fea26469706673582212201ac22c8b3cbe724ad2f8fdbb4c853cd79851c63be9b44ba6a7fa21fa13e9eadc64736f6c63430008120033",
  "immutableReferences": {},
  "source": "pragma solidity ^0.8.18;\ncontract UserStore {\n    struct User {\n        string name;\n        string bio;\n        uint age;\n        string city;\n        uint memberSince;\n    }\n\n    mapping(address => User) public users;\n    \n    \n\n\n    function _addUser(string memory _name, string memory _bio, uint _age, string memory _city) internal {\n        require(checkUserExists(msg.sender) == false, \"You are already signedUp\");\n        users[msg.sender] = User(_name,_bio,_age,_city,block.timestamp);\n        \n    }\n\n    function _updateUser(string memory _name, string memory _bio, uint _age, string memory _city) internal {\n        users[msg.sender] = User({name:_name, bio:_bio, age: _age, city: _city, memberSince:users[msg.sender].memberSince});\n    }\n\n    function _getUserDetails(address _userAddress) internal view returns (string memory, string memory, uint, string memory)  {\n        User memory user = users[_userAddress];\n        return (user.name, user.bio, user.age, user.city);\n    }\n\n    function checkUserExists(address a) internal view returns (bool) {\n        if(users[a].memberSince == 0)\n        {\n            return false;\n        }\n        else\n        {\n            return true;\n        }\n  }\n}\n",
  "sourcePath": "/Users/shivansh/CPSC-559/CPSC-559-Decentralized_YT/contracts/UserStore.sol",
  "compiler": {
    "name": "solc",
    "version": "0.8.18+commit.87f61d96.Emscripten.clang"
  },
  "schemaVersion": "3.4.12",
  "updatedAt": "2023-05-06T04:04:31.441Z",
  "networkType": "ethereum",
  "devdoc": {
    "kind": "dev",
    "methods": {},
    "version": 1
  },
  "userdoc": {
    "kind": "user",
    "methods": {},
    "version": 1
  }
}