{
  "contractName": "VideoStore",
  "abi": [
    {
      "anonymous": false,
      "inputs": [
        {
          "indexed": false,
          "internalType": "string",
          "name": "_name",
          "type": "string"
        },
        {
          "indexed": false,
          "internalType": "string",
          "name": "_description",
          "type": "string"
        },
        {
          "indexed": false,
          "internalType": "uint256",
          "name": "_publishedOn",
          "type": "uint256"
        },
        {
          "indexed": false,
          "internalType": "string",
          "name": "_IPFSHash",
          "type": "string"
        },
        {
          "indexed": false,
          "internalType": "string",
          "name": "uniqueId",
          "type": "string"
        }
      ],
      "name": "addVideoEvent",
      "type": "event"
    },
    {
      "inputs": [
        {
          "internalType": "address",
          "name": "",
          "type": "address"
        },
        {
          "internalType": "uint256",
          "name": "",
          "type": "uint256"
        }
      ],
      "name": "userToVideo",
      "outputs": [
        {
          "internalType": "string",
          "name": "name",
          "type": "string"
        },
        {
          "internalType": "string",
          "name": "description",
          "type": "string"
        },
        {
          "internalType": "uint256",
          "name": "publishedOn",
          "type": "uint256"
        },
        {
          "internalType": "string",
          "name": "IPFSHash",
          "type": "string"
        },
        {
          "internalType": "string",
          "name": "uniqueId",
          "type": "string"
        }
      ],
      "stateMutability": "view",
      "type": "function",
      "constant": true
    },
    {
      "inputs": [
        {
          "internalType": "string",
          "name": "_name",
          "type": "string"
        },
        {
          "internalType": "string",
          "name": "_description",
          "type": "string"
        },
        {
          "internalType": "string",
          "name": "_IPFSHash",
          "type": "string"
        }
      ],
      "name": "addVideo",
      "outputs": [],
      "stateMutability": "nonpayable",
      "type": "function"
    },
    {
      "inputs": [
        {
          "internalType": "address",
          "name": "_add",
          "type": "address"
        },
        {
          "internalType": "string",
          "name": "_IPFSHash",
          "type": "string"
        },
        {
          "internalType": "uint256",
          "name": "_timestamp",
          "type": "uint256"
        }
      ],
      "name": "getVideoIndex",
      "outputs": [
        {
          "internalType": "int256",
          "name": "",
          "type": "int256"
        }
      ],
      "stateMutability": "view",
      "type": "function",
      "constant": true
    },
    {
      "inputs": [
        {
          "internalType": "string",
          "name": "_name",
          "type": "string"
        },
        {
          "internalType": "string",
          "name": "_description",
          "type": "string"
        },
        {
          "internalType": "string",
          "name": "_IPFSHash",
          "type": "string"
        },
        {
          "internalType": "uint256",
          "name": "_timestamp",
          "type": "uint256"
        }
      ],
      "name": "updateVideo",
      "outputs": [],
      "stateMutability": "nonpayable",
      "type": "function"
    }
  ],
  "bytecode": "0x608060405234801561001057600080fd5b50611a83806100206000396000f3fe608060405234801561001057600080fd5b506004361061004c5760003560e01c80632a83556714610051578063797d61f11461006d578063ce54e08f146100a1578063d0edbc42146100bd575b600080fd5b61006b600480360381019061006691906110d2565b6100ed565b005b6100876004803603810190610082919061120d565b610274565b6040516100989594939291906112db565b60405180910390f35b6100bb60048036038101906100b6919061134a565b6104e7565b005b6100d760048036038101906100d29190611405565b61087c565b6040516100e4919061148d565b60405180910390f35b60006101103373ffffffffffffffffffffffffffffffffffffffff166014610c8e565b8261011a42610eca565b60405160200161012c939291906114e4565b60405160208183030381529060405290506000803373ffffffffffffffffffffffffffffffffffffffff1673ffffffffffffffffffffffffffffffffffffffff1681526020019081526020016000206040518060a0016040528086815260200185815260200142815260200184815260200183815250908060018154018082558091505060019003906000526020600020906005020160009091909190915060008201518160000190816101e09190611721565b5060208201518160010190816101f69190611721565b506040820151816002015560608201518160030190816102169190611721565b50608082015181600401908161022c9190611721565b5050507f16e5cbaec8fe5db38d35c21aa6575ce89c3c58ccba24e820b6d3cadf27e050d084844285856040516102669594939291906112db565b60405180910390a150505050565b6000602052816000526040600020818154811061029057600080fd5b9060005260206000209060050201600091509150508060000180546102b490611544565b80601f01602080910402602001604051908101604052809291908181526020018280546102e090611544565b801561032d5780601f106103025761010080835404028352916020019161032d565b820191906000526020600020905b81548152906001019060200180831161031057829003601f168201915b50505050509080600101805461034290611544565b80601f016020809104026020016040519081016040528092919081815260200182805461036e90611544565b80156103bb5780601f10610390576101008083540402835291602001916103bb565b820191906000526020600020905b81548152906001019060200180831161039e57829003601f168201915b5050505050908060020154908060030180546103d690611544565b80601f016020809104026020016040519081016040528092919081815260200182805461040290611544565b801561044f5780601f106104245761010080835404028352916020019161044f565b820191906000526020600020905b81548152906001019060200180831161043257829003601f168201915b50505050509080600401805461046490611544565b80601f016020809104026020016040519081016040528092919081815260200182805461049090611544565b80156104dd5780601f106104b2576101008083540402835291602001916104dd565b820191906000526020600020905b8154815290600101906020018083116104c057829003601f168201915b5050505050905085565b60006104f433848461087c565b90507fffffffffffffffffffffffffffffffffffffffffffffffffffffffffffffffff8113610558576040517f08c379a000000000000000000000000000000000000000000000000000000000815260040161054f90611865565b60405180910390fd5b6040518060a001604052808681526020018581526020016000803373ffffffffffffffffffffffffffffffffffffffff1673ffffffffffffffffffffffffffffffffffffffff16815260200190815260200160002083815481106105bf576105be611885565b5b90600052602060002090600502016002015481526020016000803373ffffffffffffffffffffffffffffffffffffffff1673ffffffffffffffffffffffffffffffffffffffff168152602001908152602001600020838154811061062657610625611885565b5b9060005260206000209060050201600301805461064290611544565b80601f016020809104026020016040519081016040528092919081815260200182805461066e90611544565b80156106bb5780601f10610690576101008083540402835291602001916106bb565b820191906000526020600020905b81548152906001019060200180831161069e57829003601f168201915b505050505081526020016000803373ffffffffffffffffffffffffffffffffffffffff1673ffffffffffffffffffffffffffffffffffffffff168152602001908152602001600020838154811061071557610714611885565b5b9060005260206000209060050201600401805461073190611544565b80601f016020809104026020016040519081016040528092919081815260200182805461075d90611544565b80156107aa5780601f1061077f576101008083540402835291602001916107aa565b820191906000526020600020905b81548152906001019060200180831161078d57829003601f168201915b50505050508152506000803373ffffffffffffffffffffffffffffffffffffffff1673ffffffffffffffffffffffffffffffffffffffff168152602001908152602001600020828154811061080257610801611885565b5b906000526020600020906005020160008201518160000190816108259190611721565b50602082015181600101908161083b9190611721565b5060408201518160020155606082015181600301908161085b9190611721565b5060808201518160040190816108719190611721565b509050505050505050565b6000806000808673ffffffffffffffffffffffffffffffffffffffff1673ffffffffffffffffffffffffffffffffffffffff168152602001908152602001600020805480602002602001604051908101604052809291908181526020016000905b82821015610b6157838290600052602060002090600502016040518060a001604052908160008201805461091090611544565b80601f016020809104026020016040519081016040528092919081815260200182805461093c90611544565b80156109895780601f1061095e57610100808354040283529160200191610989565b820191906000526020600020905b81548152906001019060200180831161096c57829003601f168201915b505050505081526020016001820180546109a290611544565b80601f01602080910402602001604051908101604052809291908181526020018280546109ce90611544565b8015610a1b5780601f106109f057610100808354040283529160200191610a1b565b820191906000526020600020905b8154815290600101906020018083116109fe57829003601f168201915b5050505050815260200160028201548152602001600382018054610a3e90611544565b80601f0160208091040260200160405190810160405280929190818152602001828054610a6a90611544565b8015610ab75780601f10610a8c57610100808354040283529160200191610ab7565b820191906000526020600020905b815481529060010190602001808311610a9a57829003601f168201915b50505050508152602001600482018054610ad090611544565b80601f0160208091040260200160405190810160405280929190818152602001828054610afc90611544565b8015610b495780601f10610b1e57610100808354040283529160200191610b49565b820191906000526020600020905b815481529060010190602001808311610b2c57829003601f168201915b505050505081525050815260200190600101906108dd565b5050505090506000610b8a8673ffffffffffffffffffffffffffffffffffffffff166014610c8e565b85610b9486610eca565b604051602001610ba6939291906114e4565b604051602081830303815290604052905060005b8251811015610c605781604051602001610bd491906118b4565b60405160208183030381529060405280519060200120838281518110610bfd57610bfc611885565b5b602002602001015160800151604051602001610c1991906118b4565b6040516020818303038152906040528051906020012003610c3f57809350505050610c87565b8080610c4a906118fa565b9150508080610c58906118fa565b915050610bba565b507fffffffffffffffffffffffffffffffffffffffffffffffffffffffffffffffff925050505b9392505050565b606060006002836002610ca19190611942565b610cab9190611984565b67ffffffffffffffff811115610cc457610cc3610fa7565b5b6040519080825280601f01601f191660200182016040528015610cf65781602001600182028036833780820191505090505b5090507f300000000000000000000000000000000000000000000000000000000000000081600081518110610d2e57610d2d611885565b5b60200101907effffffffffffffffffffffffffffffffffffffffffffffffffffffffffffff1916908160001a9053507f780000000000000000000000000000000000000000000000000000000000000081600181518110610d9257610d91611885565b5b60200101907effffffffffffffffffffffffffffffffffffffffffffffffffffffffffffff1916908160001a90535060006001846002610dd29190611942565b610ddc9190611984565b90505b6001811115610e7c577f3031323334353637383961626364656600000000000000000000000000000000600f861660108110610e1e57610e1d611885565b5b1a60f81b828281518110610e3557610e34611885565b5b60200101907effffffffffffffffffffffffffffffffffffffffffffffffffffffffffffff1916908160001a905350600485901c945080610e75906119b8565b9050610ddf565b5060008414610ec0576040517f08c379a0000000000000000000000000000000000000000000000000000000008152600401610eb790611a2d565b60405180910390fd5b8091505092915050565b6060610ee1826001610edb85610ee8565b01610c8e565b9050919050565b600080600090506000608084901c1115610f0a57608083901c92506010810190505b6000604084901c1115610f2557604083901c92506008810190505b6000602084901c1115610f4057602083901c92506004810190505b6000601084901c1115610f5b57601083901c92506002810190505b6000600884901c1115610f6f576001810190505b80915050919050565b6000604051905090565b600080fd5b600080fd5b600080fd5b600080fd5b6000601f19601f8301169050919050565b7f4e487b7100000000000000000000000000000000000000000000000000000000600052604160045260246000fd5b610fdf82610f96565b810181811067ffffffffffffffff82111715610ffe57610ffd610fa7565b5b80604052505050565b6000611011610f78565b905061101d8282610fd6565b919050565b600067ffffffffffffffff82111561103d5761103c610fa7565b5b61104682610f96565b9050602081019050919050565b82818337600083830152505050565b600061107561107084611022565b611007565b90508281526020810184848401111561109157611090610f91565b5b61109c848285611053565b509392505050565b600082601f8301126110b9576110b8610f8c565b5b81356110c9848260208601611062565b91505092915050565b6000806000606084860312156110eb576110ea610f82565b5b600084013567ffffffffffffffff81111561110957611108610f87565b5b611115868287016110a4565b935050602084013567ffffffffffffffff81111561113657611135610f87565b5b611142868287016110a4565b925050604084013567ffffffffffffffff81111561116357611162610f87565b5b61116f868287016110a4565b9150509250925092565b600073ffffffffffffffffffffffffffffffffffffffff82169050919050565b60006111a482611179565b9050919050565b6111b481611199565b81146111bf57600080fd5b50565b6000813590506111d1816111ab565b92915050565b6000819050919050565b6111ea816111d7565b81146111f557600080fd5b50565b600081359050611207816111e1565b92915050565b6000806040838503121561122457611223610f82565b5b6000611232858286016111c2565b9250506020611243858286016111f8565b9150509250929050565b600081519050919050565b600082825260208201905092915050565b60005b8381101561128757808201518184015260208101905061126c565b60008484015250505050565b600061129e8261124d565b6112a88185611258565b93506112b8818560208601611269565b6112c181610f96565b840191505092915050565b6112d5816111d7565b82525050565b600060a08201905081810360008301526112f58188611293565b905081810360208301526113098187611293565b905061131860408301866112cc565b818103606083015261132a8185611293565b9050818103608083015261133e8184611293565b90509695505050505050565b6000806000806080858703121561136457611363610f82565b5b600085013567ffffffffffffffff81111561138257611381610f87565b5b61138e878288016110a4565b945050602085013567ffffffffffffffff8111156113af576113ae610f87565b5b6113bb878288016110a4565b935050604085013567ffffffffffffffff8111156113dc576113db610f87565b5b6113e8878288016110a4565b92505060606113f9878288016111f8565b91505092959194509250565b60008060006060848603121561141e5761141d610f82565b5b600061142c868287016111c2565b935050602084013567ffffffffffffffff81111561144d5761144c610f87565b5b611459868287016110a4565b925050604061146a868287016111f8565b9150509250925092565b6000819050919050565b61148781611474565b82525050565b60006020820190506114a2600083018461147e565b92915050565b600081905092915050565b60006114be8261124d565b6114c881856114a8565b93506114d8818560208601611269565b80840191505092915050565b60006114f082866114b3565b91506114fc82856114b3565b915061150882846114b3565b9150819050949350505050565b7f4e487b7100000000000000000000000000000000000000000000000000000000600052602260045260246000fd5b6000600282049050600182168061155c57607f821691505b60208210810361156f5761156e611515565b5b50919050565b60008190508160005260206000209050919050565b60006020601f8301049050919050565b600082821b905092915050565b6000600883026115d77fffffffffffffffffffffffffffffffffffffffffffffffffffffffffffffffff8261159a565b6115e1868361159a565b95508019841693508086168417925050509392505050565b6000819050919050565b600061161e611619611614846111d7565b6115f9565b6111d7565b9050919050565b6000819050919050565b61163883611603565b61164c61164482611625565b8484546115a7565b825550505050565b600090565b611661611654565b61166c81848461162f565b505050565b5b8181101561169057611685600082611659565b600181019050611672565b5050565b601f8211156116d5576116a681611575565b6116af8461158a565b810160208510156116be578190505b6116d26116ca8561158a565b830182611671565b50505b505050565b600082821c905092915050565b60006116f8600019846008026116da565b1980831691505092915050565b600061171183836116e7565b9150826002028217905092915050565b61172a8261124d565b67ffffffffffffffff81111561174357611742610fa7565b5b61174d8254611544565b611758828285611694565b600060209050601f83116001811461178b5760008415611779578287015190505b6117838582611705565b8655506117eb565b601f19841661179986611575565b60005b828110156117c15784890151825560018201915060208501945060208101905061179c565b868310156117de57848901516117da601f8916826116e7565b8355505b6001600288020188555050505b505050505050565b7f596f7520617265206e6f7420617574686f72697a656420746f2075706461746560008201527f2074686973210000000000000000000000000000000000000000000000000000602082015250565b600061184f602683611258565b915061185a826117f3565b604082019050919050565b6000602082019050818103600083015261187e81611842565b9050919050565b7f4e487b7100000000000000000000000000000000000000000000000000000000600052603260045260246000fd5b60006118c082846114b3565b915081905092915050565b7f4e487b7100000000000000000000000000000000000000000000000000000000600052601160045260246000fd5b6000611905826111d7565b91507fffffffffffffffffffffffffffffffffffffffffffffffffffffffffffffffff8203611937576119366118cb565b5b600182019050919050565b600061194d826111d7565b9150611958836111d7565b9250828202611966816111d7565b9150828204841483151761197d5761197c6118cb565b5b5092915050565b600061198f826111d7565b915061199a836111d7565b92508282019050808211156119b2576119b16118cb565b5b92915050565b60006119c3826111d7565b9150600082036119d6576119d56118cb565b5b600182039050919050565b7f537472696e67733a20686578206c656e67746820696e73756666696369656e74600082015250565b6000611a17602083611258565b9150611a22826119e1565b602082019050919050565b60006020820190508181036000830152611a4681611a0a565b905091905056fea2646970667358221220a3f0aa38cceb8dc9d69939fef8e38fa0aadc45f9adcb5b198825b88d204e95e364736f6c63430008120033",
  "immutableReferences": {},
  "source": "pragma solidity ^0.8.18;\nimport \"@openzeppelin/contracts/utils/Strings.sol\";\ncontract VideoStore {\n    struct Video {\n        string name;\n        string description;\n        uint publishedOn;\n        string IPFSHash;\n        string uniqueId;\n    }\n\n    event addVideoEvent(string _name, string _description, uint _publishedOn, string _IPFSHash,string uniqueId);\n\n\n    mapping(address=> Video[]) public userToVideo;\n    function addVideo(string memory _name, string memory _description, string memory _IPFSHash) public {\n        string memory uniqueId = string.concat(Strings.toHexString(uint256(uint160(msg.sender)), 20),_IPFSHash,Strings.toHexString(block.timestamp));\n        userToVideo[msg.sender].push(Video(_name,_description,block.timestamp,_IPFSHash,uniqueId));\n        emit addVideoEvent(_name, _description, block.timestamp, _IPFSHash, uniqueId);\n    }\n\n    function getVideoIndex(address _add, string memory _IPFSHash, uint _timestamp) public view returns (int){\n        Video[] memory videoList = userToVideo[_add];\n        string memory uniqueId = string.concat(Strings.toHexString(uint256(uint160(_add)), 20),_IPFSHash,Strings.toHexString(_timestamp));\n        for (uint i=0; i<videoList.length; i++) {\n            if(keccak256(abi.encodePacked(videoList[i].uniqueId)) == keccak256(abi.encodePacked(uniqueId)))\n            {\n                return int(i);\n            }\n            i++;\n        }\n        return -1;\n    }\n\n    function updateVideo(string memory _name, string memory _description, string memory _IPFSHash,uint _timestamp) public {\n        int index = getVideoIndex(msg.sender, _IPFSHash, _timestamp);\n        require( index > -1,\"You are not authorized to update this!\");\n        userToVideo[msg.sender][uint(index)] = Video({name:_name, description:_description, publishedOn: userToVideo[msg.sender][uint(index)].publishedOn, IPFSHash:userToVideo[msg.sender][uint(index)].IPFSHash,uniqueId:userToVideo[msg.sender][uint(index)].uniqueId});\n    }\n}\n",
  "sourcePath": "/Users/shivansh/CPSC-559/CPSC-559-Decentralized_YT/contracts/VideoStore.sol",
  "compiler": {
    "name": "solc",
    "version": "0.8.18+commit.87f61d96.Emscripten.clang"
  },
  "schemaVersion": "3.4.12",
  "updatedAt": "2023-05-05T05:48:55.233Z",
  "networkType": "ethereum",
  "devdoc": {
    "kind": "dev",
    "methods": {},
    "version": 1
  },
  "userdoc": {
    "kind": "user",
    "methods": {},
    "version": 1
  }
}