{
  "contractName": "VideoStore",
  "abi": [
    {
      "inputs": [
        {
          "internalType": "address",
          "name": "",
          "type": "address"
        },
        {
          "internalType": "uint256",
          "name": "",
          "type": "uint256"
        }
      ],
      "name": "userToVideo",
      "outputs": [
        {
          "internalType": "string",
          "name": "name",
          "type": "string"
        },
        {
          "internalType": "string",
          "name": "description",
          "type": "string"
        },
        {
          "internalType": "uint256",
          "name": "publishedOn",
          "type": "uint256"
        },
        {
          "internalType": "string",
          "name": "IPFSHash",
          "type": "string"
        },
        {
          "internalType": "string",
          "name": "uniqueId",
          "type": "string"
        }
      ],
      "stateMutability": "view",
      "type": "function",
      "constant": true
    }
  ],
  "bytecode": "0x608060405234801561001057600080fd5b50610554806100206000396000f3fe608060405234801561001057600080fd5b506004361061002b5760003560e01c8063797d61f114610030575b600080fd5b61004a60048036038101906100459190610370565b610064565b60405161005b95949392919061044f565b60405180910390f35b6000602052816000526040600020818154811061008057600080fd5b9060005260206000209060050201600091509150508060000180546100a4906104ed565b80601f01602080910402602001604051908101604052809291908181526020018280546100d0906104ed565b801561011d5780601f106100f25761010080835404028352916020019161011d565b820191906000526020600020905b81548152906001019060200180831161010057829003601f168201915b505050505090806001018054610132906104ed565b80601f016020809104026020016040519081016040528092919081815260200182805461015e906104ed565b80156101ab5780601f10610180576101008083540402835291602001916101ab565b820191906000526020600020905b81548152906001019060200180831161018e57829003601f168201915b5050505050908060020154908060030180546101c6906104ed565b80601f01602080910402602001604051908101604052809291908181526020018280546101f2906104ed565b801561023f5780601f106102145761010080835404028352916020019161023f565b820191906000526020600020905b81548152906001019060200180831161022257829003601f168201915b505050505090806004018054610254906104ed565b80601f0160208091040260200160405190810160405280929190818152602001828054610280906104ed565b80156102cd5780601f106102a2576101008083540402835291602001916102cd565b820191906000526020600020905b8154815290600101906020018083116102b057829003601f168201915b5050505050905085565b600080fd5b600073ffffffffffffffffffffffffffffffffffffffff82169050919050565b6000610307826102dc565b9050919050565b610317816102fc565b811461032257600080fd5b50565b6000813590506103348161030e565b92915050565b6000819050919050565b61034d8161033a565b811461035857600080fd5b50565b60008135905061036a81610344565b92915050565b60008060408385031215610387576103866102d7565b5b600061039585828601610325565b92505060206103a68582860161035b565b9150509250929050565b600081519050919050565b600082825260208201905092915050565b60005b838110156103ea5780820151818401526020810190506103cf565b60008484015250505050565b6000601f19601f8301169050919050565b6000610412826103b0565b61041c81856103bb565b935061042c8185602086016103cc565b610435816103f6565b840191505092915050565b6104498161033a565b82525050565b600060a08201905081810360008301526104698188610407565b9050818103602083015261047d8187610407565b905061048c6040830186610440565b818103606083015261049e8185610407565b905081810360808301526104b28184610407565b90509695505050505050565b7f4e487b7100000000000000000000000000000000000000000000000000000000600052602260045260246000fd5b6000600282049050600182168061050557607f821691505b602082108103610518576105176104be565b5b5091905056fea26469706673582212207bfd2fafbf3c0d4950619ae27addbdf146ad982f56d76723a9b86afe1873a23f64736f6c63430008120033",
  "immutableReferences": {},
  "source": "pragma solidity ^0.8.18;\nimport \"@openzeppelin/contracts/utils/Strings.sol\";\ncontract VideoStore  {\n\n   \n    struct Video {\n        string name;\n        string description;\n        uint publishedOn;\n        string IPFSHash;\n        string uniqueId;\n    }\n\n\n    mapping(address=> Video[]) public userToVideo;\n    function _addVideo(string memory _name, string memory _description, string memory _IPFSHash) internal returns (string memory) {\n        string memory uniqueId = string.concat(Strings.toHexString(uint256(uint160(msg.sender)), 20),_IPFSHash,Strings.toHexString(block.timestamp));\n        userToVideo[msg.sender].push(Video(_name,_description,block.timestamp,_IPFSHash,uniqueId));\n        return uniqueId;\n    }\n\n    function _getVideoIndex(address _add, string memory _IPFSHash, uint _timestamp) internal view returns (int){\n        Video[] memory videoList = userToVideo[_add];\n        string memory uniqueId = string.concat(Strings.toHexString(uint256(uint160(_add)), 20),_IPFSHash,Strings.toHexString(_timestamp));\n        for (uint i=0; i<videoList.length; i++) {\n            if(keccak256(abi.encodePacked(videoList[i].uniqueId)) == keccak256(abi.encodePacked(uniqueId)))\n            {\n                return int(i);\n            }\n            i++;\n        }\n        return -1;\n    }\n\n    function _updateVideo(string memory _name, string memory _description, string memory _IPFSHash,uint _timestamp) internal {\n        int index = _getVideoIndex(msg.sender, _IPFSHash, _timestamp);\n        require( index > -1,\"You are not authorized to update this!\");\n        userToVideo[msg.sender][uint(index)] = Video({name:_name, description:_description, publishedOn: userToVideo[msg.sender][uint(index)].publishedOn, IPFSHash:userToVideo[msg.sender][uint(index)].IPFSHash,uniqueId:userToVideo[msg.sender][uint(index)].uniqueId});\n    }\n}\n",
  "sourcePath": "/Users/shivansh/CPSC-559/CPSC-559-Decentralized_YT/contracts/VideoStore.sol",
  "compiler": {
    "name": "solc",
    "version": "0.8.18+commit.87f61d96.Emscripten.clang"
  },
  "schemaVersion": "3.4.12",
  "updatedAt": "2023-05-06T04:04:31.463Z",
  "networkType": "ethereum",
  "devdoc": {
    "kind": "dev",
    "methods": {},
    "version": 1
  },
  "userdoc": {
    "kind": "user",
    "methods": {},
    "version": 1
  }
}